{
  "_format": "hh-sol-artifact-1",
  "contractName": "SpanningDelegate",
  "sourceName": "contracts/SpanningDelegate.sol",
  "abi": [
    {
      "inputs": [
        {
          "internalType": "bytes4",
          "name": "domain",
          "type": "bytes4"
        }
      ],
      "stateMutability": "nonpayable",
      "type": "constructor"
    },
    {
      "anonymous": false,
      "inputs": [
        {
          "indexed": true,
          "internalType": "bytes32",
          "name": "programAddress",
          "type": "bytes32"
        },
        {
          "indexed": true,
          "internalType": "bytes32",
          "name": "msgSenderAddress",
          "type": "bytes32"
        },
        {
          "indexed": true,
          "internalType": "bytes32",
          "name": "txnSenderAddress",
          "type": "bytes32"
        },
        {
          "indexed": false,
          "internalType": "bytes",
          "name": "payload",
          "type": "bytes"
        },
        {
          "indexed": false,
          "internalType": "bytes",
          "name": "returnData",
          "type": "bytes"
        }
      ],
      "name": "LocalRequest",
      "type": "event"
    },
    {
      "anonymous": false,
      "inputs": [
        {
          "indexed": true,
          "internalType": "address",
          "name": "previousOwner",
          "type": "address"
        },
        {
          "indexed": true,
          "internalType": "address",
          "name": "newOwner",
          "type": "address"
        }
      ],
      "name": "OwnershipTransferred",
      "type": "event"
    },
    {
      "anonymous": false,
      "inputs": [
        {
          "indexed": false,
          "internalType": "address",
          "name": "addr",
          "type": "address"
        },
        {
          "indexed": false,
          "internalType": "uint256",
          "name": "value",
          "type": "uint256"
        }
      ],
      "name": "Received",
      "type": "event"
    },
    {
      "anonymous": false,
      "inputs": [
        {
          "indexed": true,
          "internalType": "bytes32",
          "name": "programAddress",
          "type": "bytes32"
        },
        {
          "indexed": true,
          "internalType": "bytes32",
          "name": "msgSenderAddress",
          "type": "bytes32"
        },
        {
          "indexed": true,
          "internalType": "bytes32",
          "name": "txnSenderAddress",
          "type": "bytes32"
        },
        {
          "indexed": false,
          "internalType": "bytes",
          "name": "payload",
          "type": "bytes"
        }
      ],
      "name": "SpanningRequest",
      "type": "event"
    },
    {
      "inputs": [],
      "name": "currentSenderAddress",
      "outputs": [
        {
          "internalType": "bytes32",
          "name": "",
          "type": "bytes32"
        }
      ],
      "stateMutability": "view",
      "type": "function"
    },
    {
      "inputs": [],
      "name": "currentTxnSenderAddress",
      "outputs": [
        {
          "internalType": "bytes32",
          "name": "",
          "type": "bytes32"
        }
      ],
      "stateMutability": "view",
      "type": "function"
    },
    {
      "inputs": [],
      "name": "enableGasTank",
      "outputs": [],
      "stateMutability": "nonpayable",
      "type": "function"
    },
    {
      "inputs": [],
      "name": "getDomain",
      "outputs": [
        {
          "internalType": "bytes4",
          "name": "",
          "type": "bytes4"
        }
      ],
      "stateMutability": "view",
      "type": "function"
    },
    {
      "inputs": [],
      "name": "isDeployable",
      "outputs": [
        {
          "internalType": "bool",
          "name": "",
          "type": "bool"
        }
      ],
      "stateMutability": "view",
      "type": "function"
    },
    {
      "inputs": [],
      "name": "isValidData",
      "outputs": [
        {
          "internalType": "bool",
          "name": "",
          "type": "bool"
        }
      ],
      "stateMutability": "view",
      "type": "function"
    },
    {
      "inputs": [],
      "name": "makeDeployable",
      "outputs": [],
      "stateMutability": "nonpayable",
      "type": "function"
    },
    {
      "inputs": [
        {
          "internalType": "bytes32",
          "name": "programAddress",
          "type": "bytes32"
        },
        {
          "internalType": "bytes",
          "name": "payload",
          "type": "bytes"
        }
      ],
      "name": "makeRequest",
      "outputs": [],
      "stateMutability": "nonpayable",
      "type": "function"
    },
    {
      "inputs": [],
      "name": "owner",
      "outputs": [
        {
          "internalType": "address",
          "name": "",
          "type": "address"
        }
      ],
      "stateMutability": "view",
      "type": "function"
    },
    {
      "inputs": [],
      "name": "renounceOwnership",
      "outputs": [],
      "stateMutability": "nonpayable",
      "type": "function"
    },
    {
      "inputs": [],
      "name": "revokeDeployable",
      "outputs": [],
      "stateMutability": "nonpayable",
      "type": "function"
    },
    {
      "inputs": [
        {
          "internalType": "bytes32",
          "name": "programAddress",
          "type": "bytes32"
        },
        {
          "internalType": "bytes32",
          "name": "msgSenderAddress",
          "type": "bytes32"
        },
        {
          "internalType": "bytes32",
          "name": "txnSenderAddress",
          "type": "bytes32"
        },
        {
          "internalType": "bytes",
          "name": "payload",
          "type": "bytes"
        }
      ],
      "name": "spanningCall",
      "outputs": [],
      "stateMutability": "nonpayable",
      "type": "function"
    },
    {
      "inputs": [
        {
          "internalType": "address",
          "name": "newOwner",
          "type": "address"
        }
      ],
      "name": "transferOwnership",
      "outputs": [],
      "stateMutability": "nonpayable",
      "type": "function"
    },
    {
      "inputs": [
        {
          "internalType": "address",
          "name": "newSpanLegacyAddress",
          "type": "address"
        }
      ],
      "name": "updateSpan",
      "outputs": [],
      "stateMutability": "nonpayable",
      "type": "function"
    },
    {
      "stateMutability": "payable",
      "type": "receive"
    }
  ],
  "bytecode": "0x608060405260028054600160201b600160d01b031916600160c81b179055600380546001600160a81b031916905534801561003957600080fd5b506040516116d63803806116d6833981016040819052610058916100df565b6100613361008f565b600180556002805460e09290921c6001600160c01b0319909216919091173064010000000002179055610110565b600080546001600160a01b038381166001600160a01b0319831681178455604051919092169283917f8be0079c531659141344cd1fd0a4f28419497f9722a3daafe3b4186f6b6457e09190a35050565b6000602082840312156100f157600080fd5b81516001600160e01b03198116811461010957600080fd5b9392505050565b6115b78061011f6000396000f3fe6080604052600436106100e15760003560e01c80638da5cb5b1161007f578063d3658dee11610059578063d3658dee1461025e578063e064393f1461027d578063ed8cffc5146102a2578063f2fde38b146102c257600080fd5b80638da5cb5b146101ea578063b68d180914610212578063c6f722731461023e57600080fd5b806365ab1b73116100bb57806365ab1b731461018c578063715018a6146101ab5780638135cd80146101c057806384592cca146101d557600080fd5b80631ec973f3146101255780632342a86b146101475780633be673381461015c57600080fd5b3661012057604080513381523460208201527f88a5966d370b9919b20f3e2c13ff65706f196a4e32cc2c12bf57088f88525874910160405180910390a1005b600080fd5b34801561013157600080fd5b5061014561014036600461118b565b6102e2565b005b34801561015357600080fd5b506101456108cd565b34801561016857600080fd5b50600354600160a01b900460ff165b60405190151581526020015b60405180910390f35b34801561019857600080fd5b506004545b604051908152602001610183565b3480156101b757600080fd5b5061014561093c565b3480156101cc57600080fd5b5060055461019d565b3480156101e157600080fd5b506101456109a2565b3480156101f657600080fd5b506000546040516001600160a01b039091168152602001610183565b34801561021e57600080fd5b5060025460e01b6040516001600160e01b03199091168152602001610183565b34801561024a57600080fd5b50610145610259366004611201565b610a0b565b34801561026a57600080fd5b50600254600160c01b900460ff16610177565b34801561028957600080fd5b506101456002805460ff60c81b1916600160c81b179055565b3480156102ae57600080fd5b506101456102bd366004611225565b610a94565b3480156102ce57600080fd5b506101456102dd366004611201565b610db9565b6000546001600160a01b031633146103415760405162461bcd60e51b815260206004820181905260248201527f4f776e61626c653a2063616c6c6572206973206e6f7420746865206f776e657260448201526064015b60405180910390fd5b848360005a905061035c6003546001600160a01b0316151590565b6103ce5760405162461bcd60e51b815260206004820152602360248201527f5350414e20696d706c656d656e746174696f6e206e6f7420696e697469616c6960448201527f7a656400000000000000000000000000000000000000000000000000000000006064820152608401610338565b6040516321f8a72160e01b81526004810184905260009073__$81fafcee1b8a6a51ec90af73f309aafb9b$__906321f8a72190602401602060405180830381865af4158015610421573d6000803e3d6000fd5b505050506040513d601f19601f820116820180604052508101906104459190611271565b9050806001600160a01b03166347e1ca9c6040518163ffffffff1660e01b8152600401602060405180830381865afa158015610485573d6000803e3d6000fd5b505050506040513d601f19601f820116820180604052508101906104a9919061128e565b80156105125750806001600160a01b03166312a10ecb6040518163ffffffff1660e01b8152600401602060405180830381865afa1580156104ee573d6000803e3d6000fd5b505050506040513d601f19601f82011682018060405250810190610512919061128e565b60028054911515600160c81b0260ff60c81b19909216919091179055600154600119016105815760405162461bcd60e51b815260206004820152601f60248201527f5265656e7472616e637947756172643a207265656e7472616e742063616c6c006044820152606401610338565b60026001556105938989898989610e9b565b60018055600254600160c81b900460ff16801561063457506003546040517f6c7f1542000000000000000000000000000000000000000000000000000000008152600481018690526000916001600160a01b031690636c7f154290602401602060405180830381865afa15801561060e573d6000803e3d6000fd5b505050506040513d601f19601f8201168201806040525081019061063291906112b0565b115b156107f357600354604051632bb7253160e11b815260048101869052602481018490526001600160a01b039091169063576e4a62906044016020604051808303816000875af19250505080156106a7575060408051601f3d908101601f191682019092526106a49181019061128e565b60015b6107a6576106b36112c9565b806308c379a00361079a57506106c7611341565b806106d2575061079c565b600354604051632bb7253160e11b815260048101869052602481018590526001600160a01b039091169063576e4a62906044016020604051808303816000875af1158015610724573d6000803e3d6000fd5b505050506040513d601f19601f82011682018060405250810190610748919061128e565b6107945760405162461bcd60e51b815260206004820152601160248201527f496e73756666696369656e74205350414e0000000000000000000000000000006044820152606401610338565b506108b5565b505b3d6000803e3d6000fd5b806107945760405162461bcd60e51b815260206004820152601760248201527f436f6e7472616374206761732074616e6b20656d7074790000000000000000006044820152606401610338565b600354604051632bb7253160e11b815260048101859052602481018490526001600160a01b039091169063576e4a62906044016020604051808303816000875af1158015610845573d6000803e3d6000fd5b505050506040513d601f19601f82011682018060405250810190610869919061128e565b6108b55760405162461bcd60e51b815260206004820152601160248201527f496e73756666696369656e74205350414e0000000000000000000000000000006044820152606401610338565b50506002805460ff60c81b1916905550505050505050565b6000546001600160a01b031633146109275760405162461bcd60e51b815260206004820181905260248201527f4f776e61626c653a2063616c6c6572206973206e6f7420746865206f776e65726044820152606401610338565b6002805460ff60c01b1916600160c01b179055565b6000546001600160a01b031633146109965760405162461bcd60e51b815260206004820181905260248201527f4f776e61626c653a2063616c6c6572206973206e6f7420746865206f776e65726044820152606401610338565b6109a06000611080565b565b6000546001600160a01b031633146109fc5760405162461bcd60e51b815260206004820181905260248201527f4f776e61626c653a2063616c6c6572206973206e6f7420746865206f776e65726044820152606401610338565b6002805460ff60c01b19169055565b6000546001600160a01b03163314610a655760405162461bcd60e51b815260206004820181905260248201527f4f776e61626c653a2063616c6c6572206973206e6f7420746865206f776e65726044820152606401610338565b6003805473ffffffffffffffffffffffffffffffffffffffff19166001600160a01b0392909216919091179055565b600260015403610ae65760405162461bcd60e51b815260206004820152601f60248201527f5265656e7472616e637947756172643a207265656e7472616e742063616c6c006044820152606401610338565b600260018190555464010000000090046001600160a01b03163014610b735760405162461bcd60e51b815260206004820152602160248201527f436f6e74726163742063616c6c6564206173206064656c656761746543616c6c60448201527f60000000000000000000000000000000000000000000000000000000000000006064820152608401610338565b600073__$81fafcee1b8a6a51ec90af73f309aafb9b$__63bdb409df33610b9c60025460e01b90565b6040516001600160e01b031960e085901b811682526001600160a01b03909316600482015291166024820152604401602060405180830381865af4158015610be8573d6000803e3d6000fd5b505050506040513d601f19601f82011682018060405250810190610c0c91906112b0565b9050600073__$81fafcee1b8a6a51ec90af73f309aafb9b$__63bdb409df32610c3760025460e01b90565b6040516001600160e01b031960e085901b811682526001600160a01b03909316600482015291166024820152604401602060405180830381865af4158015610c83573d6000803e3d6000fd5b505050506040513d601f19601f82011682018060405250810190610ca791906112b0565b9050610cb560025460e01b90565b6040517f1a242547000000000000000000000000000000000000000000000000000000008152600481018790526001600160e01b0319919091169073__$81fafcee1b8a6a51ec90af73f309aafb9b$__90631a24254790602401602060405180830381865af4158015610d2c573d6000803e3d6000fd5b505050506040513d601f19601f82011682018060405250810190610d5091906113cb565b6001600160e01b03191603610d7157610d6c8583838787610e9b565b610dae565b8082867fb56a883a8a1c6d1980f883f9f1fd8fb7edd70a9c2e965a63d658753140f35d3c8787604051610da592919061141e565b60405180910390a45b505060018055505050565b6000546001600160a01b03163314610e135760405162461bcd60e51b815260206004820181905260248201527f4f776e61626c653a2063616c6c6572206973206e6f7420746865206f776e65726044820152606401610338565b6001600160a01b038116610e8f5760405162461bcd60e51b815260206004820152602660248201527f4f776e61626c653a206e6577206f776e657220697320746865207a65726f206160448201527f64647265737300000000000000000000000000000000000000000000000000006064820152608401610338565b610e9881611080565b50565b600254600160c01b900460ff16610ef45760405162461bcd60e51b815260206004820152601c60248201527f436861696e2069732063757272656e746c7920726561642d6f6e6c79000000006044820152606401610338565b610f1784846004919091556005556003805460ff60a01b1916600160a01b179055565b6040516321f8a72160e01b815260048101869052600090819073__$81fafcee1b8a6a51ec90af73f309aafb9b$__906321f8a72190602401602060405180830381865af4158015610f6c573d6000803e3d6000fd5b505050506040513d601f19601f82011682018060405250810190610f909190611271565b6001600160a01b03168484604051610fa992919061143a565b6000604051808303816000865af19150503d8060008114610fe6576040519150601f19603f3d011682016040523d82523d6000602084013e610feb565b606091505b50915091508115611039578486887f441183ccc328a32185ed6a8cf45ea707094601d022deb06b44ed87ba28b1d15487878660405161102c939291906114a6565b60405180910390a461105b565b611042816110dd565b60405162461bcd60e51b815260040161033891906114d6565b6110776003805460ff60a01b1916905560006004819055600555565b50505050505050565b600080546001600160a01b0383811673ffffffffffffffffffffffffffffffffffffffff19831681178455604051919092169283917f8be0079c531659141344cd1fd0a4f28419497f9722a3daafe3b4186f6b6457e09190a35050565b606060448251101561112257505060408051808201909152601d81527f5472616e73616374696f6e2072657665727465642073696c656e746c79000000602082015290565b6004820191508180602001905181019061113c91906114e9565b92915050565b60008083601f84011261115457600080fd5b50813567ffffffffffffffff81111561116c57600080fd5b60208301915083602082850101111561118457600080fd5b9250929050565b6000806000806000608086880312156111a357600080fd5b853594506020860135935060408601359250606086013567ffffffffffffffff8111156111cf57600080fd5b6111db88828901611142565b969995985093965092949392505050565b6001600160a01b0381168114610e9857600080fd5b60006020828403121561121357600080fd5b813561121e816111ec565b9392505050565b60008060006040848603121561123a57600080fd5b83359250602084013567ffffffffffffffff81111561125857600080fd5b61126486828701611142565b9497909650939450505050565b60006020828403121561128357600080fd5b815161121e816111ec565b6000602082840312156112a057600080fd5b8151801515811461121e57600080fd5b6000602082840312156112c257600080fd5b5051919050565b600060033d11156112e25760046000803e5060005160e01c5b90565b7f4e487b7100000000000000000000000000000000000000000000000000000000600052604160045260246000fd5b601f8201601f1916810167ffffffffffffffff8111828210171561133a5761133a6112e5565b6040525050565b600060443d101561134f5790565b6040516003193d81016004833e81513d67ffffffffffffffff816024840111818411171561137f57505050505090565b82850191508151818111156113975750505050505090565b843d87010160208285010111156113b15750505050505090565b6113c060208286010187611314565b509095945050505050565b6000602082840312156113dd57600080fd5b81516001600160e01b03198116811461121e57600080fd5b81835281816020850137506000828201602090810191909152601f909101601f19169091010190565b6020815260006114326020830184866113f5565b949350505050565b8183823760009101908152919050565b60005b8381101561146557818101518382015260200161144d565b83811115611474576000848401525b50505050565b6000815180845261149281602086016020860161144a565b601f01601f19169290920160200192915050565b6040815260006114ba6040830185876113f5565b82810360208401526114cc818561147a565b9695505050505050565b60208152600061121e602083018461147a565b6000602082840312156114fb57600080fd5b815167ffffffffffffffff8082111561151357600080fd5b818401915084601f83011261152757600080fd5b815181811115611539576115396112e5565b6040519150611552601f8201601f191660200183611314565b80825285602082850101111561156757600080fd5b61157881602084016020860161144a565b5094935050505056fea264697066735822122030b3d63c1b637d01b33b038cd093bca20c29dc62a2f3d5de814f0253ac4dc90d64736f6c634300080e0033",
  "linkReferences": {
    "contracts/SpanningUtils.sol": {
      "SpanningAddress": [
        {
          "length": 20,
          "start": 1286
        },
        {
          "length": 20,
          "start": 3222
        },
        {
          "length": 20,
          "start": 3377
        },
        {
          "length": 20,
          "start": 3601
        },
        {
          "length": 20,
          "start": 4177
        }
      ]
    }
  },
  "deployedLinkReferences": {
    "contracts/SpanningUtils.sol": {
      "SpanningAddress": [
        {
          "length": 20,
          "start": 999
        },
        {
          "length": 20,
          "start": 2935
        },
        {
          "length": 20,
          "start": 3090
        },
        {
          "length": 20,
          "start": 3314
        },
        {
          "length": 20,
          "start": 3890
        }
      ]
    }
  }
}