{
  "_format": "hh-sol-artifact-1",
  "contractName": "JadeNFT",
  "sourceName": "contracts/app/JadeNFT.sol",
  "abi": [
    {
      "inputs": [
        {
          "internalType": "address",
          "name": "delegate_",
          "type": "address"
        }
      ],
      "stateMutability": "nonpayable",
      "type": "constructor"
    },
    {
      "inputs": [],
      "name": "MAX_ID_PLUS_ONE",
      "outputs": [
        {
          "internalType": "uint256",
          "name": "",
          "type": "uint256"
        }
      ],
      "stateMutability": "view",
      "type": "function"
    },
    {
      "inputs": [
        {
          "internalType": "address",
          "name": "receiverLegacyAddress",
          "type": "address"
        },
        {
          "internalType": "uint256",
          "name": "tokenId",
          "type": "uint256"
        }
      ],
      "name": "approve",
      "outputs": [],
      "stateMutability": "nonpayable",
      "type": "function"
    },
    {
      "inputs": [
        {
          "internalType": "bytes32",
          "name": "receiverAddress",
          "type": "bytes32"
        },
        {
          "internalType": "uint256",
          "name": "tokenId",
          "type": "uint256"
        }
      ],
      "name": "approve",
      "outputs": [],
      "stateMutability": "nonpayable",
      "type": "function"
    },
    {
      "inputs": [
        {
          "internalType": "bytes32",
          "name": "accountAddress",
          "type": "bytes32"
        }
      ],
      "name": "balanceOf",
      "outputs": [
        {
          "internalType": "uint256",
          "name": "",
          "type": "uint256"
        }
      ],
      "stateMutability": "view",
      "type": "function"
    },
    {
      "inputs": [
        {
          "internalType": "address",
          "name": "accountLegacyAddress",
          "type": "address"
        }
      ],
      "name": "balanceOf",
      "outputs": [
        {
          "internalType": "uint256",
          "name": "",
          "type": "uint256"
        }
      ],
      "stateMutability": "view",
      "type": "function"
    },
    {
      "inputs": [],
      "name": "baseURI",
      "outputs": [
        {
          "internalType": "string",
          "name": "",
          "type": "string"
        }
      ],
      "stateMutability": "view",
      "type": "function"
    },
    {
      "inputs": [
        {
          "internalType": "uint256",
          "name": "tokenId",
          "type": "uint256"
        }
      ],
      "name": "burn",
      "outputs": [],
      "stateMutability": "nonpayable",
      "type": "function"
    },
    {
      "inputs": [],
      "name": "currentIndex",
      "outputs": [
        {
          "internalType": "uint256",
          "name": "",
          "type": "uint256"
        }
      ],
      "stateMutability": "view",
      "type": "function"
    },
    {
      "inputs": [],
      "name": "currentSupply",
      "outputs": [
        {
          "internalType": "uint256",
          "name": "",
          "type": "uint256"
        }
      ],
      "stateMutability": "view",
      "type": "function"
    },
    {
      "inputs": [
        {
          "internalType": "uint256",
          "name": "tokenId",
          "type": "uint256"
        }
      ],
      "name": "getApproved",
      "outputs": [
        {
          "internalType": "address",
          "name": "",
          "type": "address"
        }
      ],
      "stateMutability": "view",
      "type": "function"
    },
    {
      "inputs": [
        {
          "internalType": "uint256",
          "name": "tokenId",
          "type": "uint256"
        }
      ],
      "name": "getApprovedSpanning",
      "outputs": [
        {
          "internalType": "bytes32",
          "name": "",
          "type": "bytes32"
        }
      ],
      "stateMutability": "view",
      "type": "function"
    },
    {
      "inputs": [
        {
          "internalType": "bytes32",
          "name": "senderAddress",
          "type": "bytes32"
        },
        {
          "internalType": "bytes32",
          "name": "receiverAddress",
          "type": "bytes32"
        }
      ],
      "name": "isApprovedForAll",
      "outputs": [
        {
          "internalType": "bool",
          "name": "",
          "type": "bool"
        }
      ],
      "stateMutability": "view",
      "type": "function"
    },
    {
      "inputs": [
        {
          "internalType": "address",
          "name": "senderLegacyAddress",
          "type": "address"
        },
        {
          "internalType": "address",
          "name": "receiverLegacyAddress",
          "type": "address"
        }
      ],
      "name": "isApprovedForAll",
      "outputs": [
        {
          "internalType": "bool",
          "name": "",
          "type": "bool"
        }
      ],
      "stateMutability": "view",
      "type": "function"
    },
    {
      "inputs": [],
      "name": "isGasTankEnabledForAll",
      "outputs": [
        {
          "internalType": "bool",
          "name": "",
          "type": "bool"
        }
      ],
      "stateMutability": "view",
      "type": "function"
    },
    {
      "inputs": [],
      "name": "isSpanning",
      "outputs": [
        {
          "internalType": "bool",
          "name": "",
          "type": "bool"
        }
      ],
      "stateMutability": "pure",
      "type": "function"
    },
    {
      "inputs": [],
      "name": "isSpanningCall",
      "outputs": [
        {
          "internalType": "bool",
          "name": "",
          "type": "bool"
        }
      ],
      "stateMutability": "view",
      "type": "function"
    },
    {
      "inputs": [
        {
          "internalType": "bytes32",
          "name": "recipientAddress",
          "type": "bytes32"
        }
      ],
      "name": "mint",
      "outputs": [],
      "stateMutability": "payable",
      "type": "function"
    },
    {
      "inputs": [],
      "name": "name",
      "outputs": [
        {
          "internalType": "string",
          "name": "",
          "type": "string"
        }
      ],
      "stateMutability": "view",
      "type": "function"
    },
    {
      "inputs": [],
      "name": "owner",
      "outputs": [
        {
          "internalType": "bytes32",
          "name": "",
          "type": "bytes32"
        }
      ],
      "stateMutability": "view",
      "type": "function"
    },
    {
      "inputs": [
        {
          "internalType": "uint256",
          "name": "tokenId",
          "type": "uint256"
        }
      ],
      "name": "ownerOf",
      "outputs": [
        {
          "internalType": "address",
          "name": "",
          "type": "address"
        }
      ],
      "stateMutability": "view",
      "type": "function"
    },
    {
      "inputs": [
        {
          "internalType": "uint256",
          "name": "tokenId",
          "type": "uint256"
        }
      ],
      "name": "ownerOfSpanning",
      "outputs": [
        {
          "internalType": "bytes32",
          "name": "",
          "type": "bytes32"
        }
      ],
      "stateMutability": "view",
      "type": "function"
    },
    {
      "inputs": [],
      "name": "renounceOwnership",
      "outputs": [],
      "stateMutability": "nonpayable",
      "type": "function"
    },
    {
      "inputs": [
        {
          "internalType": "address",
          "name": "senderLegacyAddress",
          "type": "address"
        },
        {
          "internalType": "address",
          "name": "receiverLegacyAddress",
          "type": "address"
        },
        {
          "internalType": "uint256",
          "name": "tokenId",
          "type": "uint256"
        }
      ],
      "name": "safeTransferFrom",
      "outputs": [],
      "stateMutability": "nonpayable",
      "type": "function"
    },
    {
      "inputs": [
        {
          "internalType": "address",
          "name": "senderLegacyAddress",
          "type": "address"
        },
        {
          "internalType": "address",
          "name": "receiverLegacyAddress",
          "type": "address"
        },
        {
          "internalType": "uint256",
          "name": "tokenId",
          "type": "uint256"
        },
        {
          "internalType": "bytes",
          "name": "payload",
          "type": "bytes"
        }
      ],
      "name": "safeTransferFrom",
      "outputs": [],
      "stateMutability": "nonpayable",
      "type": "function"
    },
    {
      "inputs": [
        {
          "internalType": "bytes32",
          "name": "senderAddress",
          "type": "bytes32"
        },
        {
          "internalType": "bytes32",
          "name": "receiverAddress",
          "type": "bytes32"
        },
        {
          "internalType": "uint256",
          "name": "tokenId",
          "type": "uint256"
        }
      ],
      "name": "safeTransferFrom",
      "outputs": [],
      "stateMutability": "nonpayable",
      "type": "function"
    },
    {
      "inputs": [
        {
          "internalType": "bytes32",
          "name": "senderAddress",
          "type": "bytes32"
        },
        {
          "internalType": "bytes32",
          "name": "receiverAddress",
          "type": "bytes32"
        },
        {
          "internalType": "uint256",
          "name": "tokenId",
          "type": "uint256"
        },
        {
          "internalType": "bytes",
          "name": "payload",
          "type": "bytes"
        }
      ],
      "name": "safeTransferFrom",
      "outputs": [],
      "stateMutability": "nonpayable",
      "type": "function"
    },
    {
      "inputs": [
        {
          "internalType": "address",
          "name": "receiverLegacyAddress",
          "type": "address"
        },
        {
          "internalType": "bool",
          "name": "shouldApprove",
          "type": "bool"
        }
      ],
      "name": "setApprovalForAll",
      "outputs": [],
      "stateMutability": "nonpayable",
      "type": "function"
    },
    {
      "inputs": [
        {
          "internalType": "bytes32",
          "name": "receiverAddress",
          "type": "bytes32"
        },
        {
          "internalType": "bool",
          "name": "shouldApprove",
          "type": "bool"
        }
      ],
      "name": "setApprovalForAll",
      "outputs": [],
      "stateMutability": "nonpayable",
      "type": "function"
    },
    {
      "inputs": [
        {
          "internalType": "bool",
          "name": "set",
          "type": "bool"
        }
      ],
      "name": "setGasTankEnabledForAll",
      "outputs": [],
      "stateMutability": "nonpayable",
      "type": "function"
    },
    {
      "inputs": [
        {
          "internalType": "bytes4",
          "name": "interfaceId",
          "type": "bytes4"
        }
      ],
      "name": "supportsInterface",
      "outputs": [
        {
          "internalType": "bool",
          "name": "",
          "type": "bool"
        }
      ],
      "stateMutability": "view",
      "type": "function"
    },
    {
      "inputs": [],
      "name": "symbol",
      "outputs": [
        {
          "internalType": "string",
          "name": "",
          "type": "string"
        }
      ],
      "stateMutability": "view",
      "type": "function"
    },
    {
      "inputs": [
        {
          "internalType": "uint256",
          "name": "tokenId",
          "type": "uint256"
        }
      ],
      "name": "tokenURI",
      "outputs": [
        {
          "internalType": "string",
          "name": "",
          "type": "string"
        }
      ],
      "stateMutability": "view",
      "type": "function"
    },
    {
      "inputs": [],
      "name": "totalSupply",
      "outputs": [
        {
          "internalType": "uint256",
          "name": "",
          "type": "uint256"
        }
      ],
      "stateMutability": "pure",
      "type": "function"
    },
    {
      "inputs": [
        {
          "internalType": "address",
          "name": "senderLegacyAddress",
          "type": "address"
        },
        {
          "internalType": "address",
          "name": "receiverLegacyAddress",
          "type": "address"
        },
        {
          "internalType": "uint256",
          "name": "tokenId",
          "type": "uint256"
        }
      ],
      "name": "transferFrom",
      "outputs": [],
      "stateMutability": "nonpayable",
      "type": "function"
    },
    {
      "inputs": [
        {
          "internalType": "bytes32",
          "name": "senderAddress",
          "type": "bytes32"
        },
        {
          "internalType": "bytes32",
          "name": "receiverAddress",
          "type": "bytes32"
        },
        {
          "internalType": "uint256",
          "name": "tokenId",
          "type": "uint256"
        }
      ],
      "name": "transferFrom",
      "outputs": [],
      "stateMutability": "nonpayable",
      "type": "function"
    },
    {
      "inputs": [
        {
          "internalType": "bytes32",
          "name": "newOwnerAddress",
          "type": "bytes32"
        }
      ],
      "name": "transferOwnership",
      "outputs": [],
      "stateMutability": "nonpayable",
      "type": "function"
    },
    {
      "inputs": [
        {
          "internalType": "address",
          "name": "newDelegateLegacyAddress",
          "type": "address"
        }
      ],
      "name": "updateDelegate",
      "outputs": [],
      "stateMutability": "nonpayable",
      "type": "function"
    }
  ],
  "bytecode": "0x6001805460ff60a01b19169055600060095560e060405260366080818152906200325760a03980516200003b91600a9160209091019062000283565b503480156200004957600080fd5b506040516200328d3803806200328d8339810160408190526200006c9162000329565b60408051808201825260208082527f4a616465205370616e6e696e67204e6f6e2d66756e6769626c6520546f6b656e81830152825180840190935260078352661290511153919560ca1b90830152600080546001600160a01b0385166001600160a01b03199182168117909255600180549091169091179055908280620000fd620000f73362000134565b620001d4565b5082516200011390600390602086019062000283565b5081516200012990600490602085019062000283565b5050505050620003dd565b600073__$81fafcee1b8a6a51ec90af73f309aafb9b$__63bdb409df836200015b6200020d565b6040516001600160e01b031960e085901b811682526001600160a01b03909316600482015291166024820152604401602060405180830381865af4158015620001a8573d6000803e3d6000fd5b505050506040513d601f19601f82011682018060405250810190620001ce91906200035b565b92915050565b6002805490829055604051829082907fcbbb77f62b929125ef27b63e21aa7682e6a2cb1f238a0c221931211b4d1913eb90600090a35050565b6001546040805163b68d180960e01b815290516000926001600160a01b03169163b68d18099160048083019260209291908290030181865afa15801562000258573d6000803e3d6000fd5b505050506040513d601f19601f820116820180604052508101906200027e919062000375565b905090565b8280546200029190620003a1565b90600052602060002090601f016020900481019282620002b5576000855562000300565b82601f10620002d057805160ff191683800117855562000300565b8280016001018555821562000300579182015b8281111562000300578251825591602001919060010190620002e3565b506200030e92915062000312565b5090565b5b808211156200030e576000815560010162000313565b6000602082840312156200033c57600080fd5b81516001600160a01b03811681146200035457600080fd5b9392505050565b6000602082840312156200036e57600080fd5b5051919050565b6000602082840312156200038857600080fd5b81516001600160e01b0319811681146200035457600080fd5b600181811c90821680620003b657607f821691505b602082108103620003d757634e487b7160e01b600052602260045260246000fd5b50919050565b612e6a80620003ed6000396000f3fe60806040526004361061026a5760003560e01c806370a0823111610153578063c1e74ead116100cb578063e985e9c51161007f578063f807e3da11610064578063f807e3da146106be578063fb7a529b146106de578063fe3f9b0e146106fe57600080fd5b8063e985e9c51461067e578063f659592b1461069e57600080fd5b8063c8b36087116100b0578063c8b3608714610628578063cd36a9e914610648578063d614b7121461065e57600080fd5b8063c1e74ead146105e8578063c87b56dd1461060857600080fd5b806395d89b4111610122578063a22cb46511610107578063a22cb46514610595578063adf2cead146105b5578063b88d4fde146105c857600080fd5b806395d89b4114610545578063a02515bf1461055a57600080fd5b806370a08231146104e6578063715018a614610506578063771282f61461051b5780638da5cb5b1461053057600080fd5b80632fb840f5116101e657806347e1ca9c116101b55780636352211e1161019a5780636352211e146104915780636c0360eb146104b15780636c7f1542146104c657600080fd5b806347e1ca9c146104295780634aa1346c1461043d57600080fd5b80632fb840f5146103a957806342842e0e146103c957806342966c68146103e9578063471444211461040957600080fd5b806312a10ecb1161023d57806323b872dd1161022257806323b872dd1461035e57806326987b601461037e5780632f8a37a81461039457600080fd5b806312a10ecb1461032057806318160ddd1461033f57600080fd5b806301ffc9a71461026f57806306fdde03146102a4578063081812fc146102c6578063095ea7b3146102fe575b600080fd5b34801561027b57600080fd5b5061028f61028a366004612821565b61071e565b60405190151581526020015b60405180910390f35b3480156102b057600080fd5b506102b96107bb565b60405161029b9190612896565b3480156102d257600080fd5b506102e66102e13660046128a9565b61084d565b6040516001600160a01b03909116815260200161029b565b34801561030a57600080fd5b5061031e6103193660046128d7565b610907565b005b34801561032c57600080fd5b50600154600160a01b900460ff1661028f565b34801561034b57600080fd5b506104005b60405190815260200161029b565b34801561036a57600080fd5b5061031e610379366004612903565b610923565b34801561038a57600080fd5b5061035060095481565b3480156103a057600080fd5b5061028f61094f565b3480156103b557600080fd5b5061031e6103c4366004612944565b610973565b3480156103d557600080fd5b5061031e6103e4366004612903565b6109e2565b3480156103f557600080fd5b5061031e6104043660046128a9565b610a17565b34801561041557600080fd5b5061031e610424366004612970565b610a99565b34801561043557600080fd5b50600161028f565b34801561044957600080fd5b5061031e6104583660046129a0565b60018054911515600160a01b027fffffffffffffffffffffff00ffffffffffffffffffffffffffffffffffffffff909216919091179055565b34801561049d57600080fd5b506102e66104ac3660046128a9565b610b61565b3480156104bd57600080fd5b506102b9610b6d565b3480156104d257600080fd5b506103506104e13660046128a9565b610bfb565b3480156104f257600080fd5b506103506105013660046129bd565b610cf7565b34801561051257600080fd5b5061031e610d15565b34801561052757600080fd5b50600954610350565b34801561053c57600080fd5b50600254610350565b34801561055157600080fd5b506102b9610df9565b34801561056657600080fd5b5061028f610575366004612970565b600091825260086020908152604080842092845291905290205460ff1690565b3480156105a157600080fd5b5061031e6105b03660046129da565b610e08565b61031e6105c33660046128a9565b610e1f565b3480156105d457600080fd5b5061031e6105e3366004612ab6565b610e43565b3480156105f457600080fd5b5061031e610603366004612b22565b610e71565b34801561061457600080fd5b506102b96106233660046128a9565b610e7f565b34801561063457600080fd5b5061031e610643366004612944565b610f0e565b34801561065457600080fd5b5061035061040081565b34801561066a57600080fd5b5061031e610679366004612b47565b610f25565b34801561068a57600080fd5b5061028f610699366004612b89565b610f89565b3480156106aa57600080fd5b506103506106b93660046128a9565b610fcc565b3480156106ca57600080fd5b5061031e6106d93660046128a9565b6110c1565b3480156106ea57600080fd5b506103506106f93660046128a9565b611218565b34801561070a57600080fd5b5061031e6107193660046129bd565b611297565b60006001600160e01b031982167f80ac58cd00000000000000000000000000000000000000000000000000000000148061078157506001600160e01b031982167f5b5e139f00000000000000000000000000000000000000000000000000000000145b806107b557507f01ffc9a7000000000000000000000000000000000000000000000000000000006001600160e01b03198316145b92915050565b6060600380546107ca90612bb7565b80601f01602080910402602001604051908101604052809291908181526020018280546107f690612bb7565b80156108435780601f1061081857610100808354040283529160200191610843565b820191906000526020600020905b81548152906001019060200180831161082657829003601f168201915b5050505050905090565b60008061085983611218565b90506000610866826113b3565b905061087061142a565b6001600160e01b03198281169116146108f65760405162461bcd60e51b815260206004820152603060248201527f4552433732313a2072656d6f7465206163636f756e742072657175657374696e60448201527f67206c656761637920616464726573730000000000000000000000000000000060648201526084015b60405180910390fd5b6108ff8261149d565b949350505050565b60006109128361162e565b905061091e8183610a99565b505050565b600061092e8461162e565b9050600061093b8461162e565b9050610948828285610973565b5050505050565b6000336109646000546001600160a01b031690565b6001600160a01b031614905090565b8061098561097f6116c3565b82611844565b6109d15760405162461bcd60e51b815260206004820152601d60248201527f6f6e6c794f776e65724f72417070726f7665643a2062616420726f6c6500000060448201526064016108ed565b6109dc8484846118fd565b50505050565b60006109ed8461162e565b905060006109fa8461162e565b905061094882828560405180602001604052806000815250610f25565b6000610a2282610fcc565b90506000610a2e6116c3565b9050610a386116c3565b8214610a905760405162461bcd60e51b815260206004820152602160248201527f4552433732313a206275726e2066726f6d20696e636f7272656374206f776e656044820152603960f91b60648201526084016108ed565b61091e83611c2d565b80610aa561097f6116c3565b610af15760405162461bcd60e51b815260206004820152601d60248201527f6f6e6c794f776e65724f72417070726f7665643a2062616420726f6c6500000060448201526064016108ed565b6000610afc83610fcc565b9050808403610b575760405162461bcd60e51b815260206004820152602160248201527f4552433732313a20617070726f76616c20746f2063757272656e74206f776e656044820152603960f91b60648201526084016108ed565b6109dc8484611e85565b60008061085983610fcc565b600a8054610b7a90612bb7565b80601f0160208091040260200160405190810160405280929190818152602001828054610ba690612bb7565b8015610bf35780601f10610bc857610100808354040283529160200191610bf3565b820191906000526020600020905b815481529060010190602001808311610bd657829003601f168201915b505050505081565b6040516367348afd60e11b81526004810182905260009073__$81fafcee1b8a6a51ec90af73f309aafb9b$__9063ce6915fa90602401602060405180830381865af4158015610c4e573d6000803e3d6000fd5b505050506040513d601f19601f82011682018060405250810190610c729190612bf1565b610ce45760405162461bcd60e51b815260206004820152602d60248201527f4552433732313a2062616c616e636520717565727920666f722074686520696e60448201527f76616c696420616464726573730000000000000000000000000000000000000060648201526084016108ed565b5060009081526006602052604090205490565b600080610d038361162e565b9050610d0e81610bfb565b9392505050565b610d1d6116c3565b60025473__$81fafcee1b8a6a51ec90af73f309aafb9b$__916320845949916040516001600160e01b031960e085901b16815260048101929092526024820152604401602060405180830381865af4158015610d7d573d6000803e3d6000fd5b505050506040513d601f19601f82011682018060405250810190610da19190612bf1565b610ded5760405162461bcd60e51b815260206004820152601360248201527f6f6e6c794f776e65723a2062616420726f6c650000000000000000000000000060448201526064016108ed565b610df76000611f26565b565b6060600480546107ca90612bb7565b6000610e138361162e565b905061091e8183610e71565b6009546104008110610e3057600080fd5b610e3a8282611f5f565b60010160095550565b6000610e4e8561162e565b90506000610e5b8561162e565b9050610e6982828686610f25565b505050505050565b610e7b8282612251565b5050565b60606104008210610ed25760405162461bcd60e51b815260206004820152600a60248201527f696e76616c69642069640000000000000000000000000000000000000000000060448201526064016108ed565b600a610ee7610ee2608085612c24565b612403565b604051602001610ef8929190612c54565b6040516020818303038152906040529050919050565b61091e838383604051806020016040528060008152505b81610f3161097f6116c3565b610f7d5760405162461bcd60e51b815260206004820152601d60248201527f6f6e6c794f776e65724f72417070726f7665643a2062616420726f6c6500000060448201526064016108ed565b61094885858585612538565b600080610f958461162e565b90506000610fa28461162e565b600083815260086020908152604080832084845290915290205490915060ff165b95945050505050565b6000818152600560205260408082205490516367348afd60e11b81526004810182905273__$81fafcee1b8a6a51ec90af73f309aafb9b$__9063ce6915fa90602401602060405180830381865af415801561102b573d6000803e3d6000fd5b505050506040513d601f19601f8201168201806040525081019061104f9190612bf1565b6107b55760405162461bcd60e51b815260206004820152602960248201527f4552433732313a206f776e657220717565727920666f72206e6f6e657869737460448201527f656e7420746f6b656e000000000000000000000000000000000000000000000060648201526084016108ed565b6110c96116c3565b60025473__$81fafcee1b8a6a51ec90af73f309aafb9b$__916320845949916040516001600160e01b031960e085901b16815260048101929092526024820152604401602060405180830381865af4158015611129573d6000803e3d6000fd5b505050506040513d601f19601f8201168201806040525081019061114d9190612bf1565b6111995760405162461bcd60e51b815260206004820152601360248201527f6f6e6c794f776e65723a2062616420726f6c650000000000000000000000000060448201526064016108ed565b8061120c5760405162461bcd60e51b815260206004820152602660248201527f4f776e61626c653a206e6577206f776e657220697320746865207a65726f206160448201527f646472657373000000000000000000000000000000000000000000000000000060648201526084016108ed565b61121581611f26565b50565b6000611223826125c1565b6112845760405162461bcd60e51b815260206004820152602c60248201527f4552433732313a20617070726f76656420717565727920666f72206e6f6e657860448201526b34b9ba32b73a103a37b5b2b760a11b60648201526084016108ed565b5060009081526007602052604090205490565b61129f6116c3565b60025473__$81fafcee1b8a6a51ec90af73f309aafb9b$__916320845949916040516001600160e01b031960e085901b16815260048101929092526024820152604401602060405180830381865af41580156112ff573d6000803e3d6000fd5b505050506040513d601f19601f820116820180604052508101906113239190612bf1565b61136f5760405162461bcd60e51b815260206004820152601360248201527f6f6e6c794f776e65723a2062616420726f6c650000000000000000000000000060448201526064016108ed565b600080546001600160a01b039092167fffffffffffffffffffffffff0000000000000000000000000000000000000000928316811790915560018054909216179055565b604051631a24254760e01b81526004810182905260009073__$81fafcee1b8a6a51ec90af73f309aafb9b$__90631a24254790602401602060405180830381865af4158015611406573d6000803e3d6000fd5b505050506040513d601f19601f820116820180604052508101906107b59190612d1d565b6001546040805163b68d180960e01b815290516000926001600160a01b03169163b68d18099160048083019260209291908290030181865afa158015611474573d6000803e3d6000fd5b505050506040513d601f19601f820116820180604052508101906114989190612d1d565b905090565b6001546040805163b68d180960e01b8152905160009283926001600160a01b039091169163b68d1809916004808201926020929091908290030181865afa1580156114ec573d6000803e3d6000fd5b505050506040513d601f19601f820116820180604052508101906115109190612d1d565b604051631a24254760e01b8152600481018590526001600160e01b0319919091169073__$81fafcee1b8a6a51ec90af73f309aafb9b$__90631a24254790602401602060405180830381865af415801561156e573d6000803e3d6000fd5b505050506040513d601f19601f820116820180604052508101906115929190612d1d565b6001600160e01b031916036107b5576040517f21f8a7210000000000000000000000000000000000000000000000000000000081526004810184905273__$81fafcee1b8a6a51ec90af73f309aafb9b$__906321f8a72190602401602060405180830381865af415801561160a573d6000803e3d6000fd5b505050506040513d601f19601f82011682018060405250810190610d0e9190612d3a565b600073__$81fafcee1b8a6a51ec90af73f309aafb9b$__63bdb409df8361165361142a565b6040516001600160e01b031960e085901b811682526001600160a01b03909316600482015291166024820152604401602060405180830381865af415801561169f573d6000803e3d6000fd5b505050506040513d601f19601f820116820180604052508101906107b59190612d57565b600154604080517f65ab1b7300000000000000000000000000000000000000000000000000000000815290516000926001600160a01b0316916365ab1b739160048083019260209291908290030181865afa158015611726573d6000803e3d6000fd5b505050506040513d601f19601f8201168201806040525081019061174a9190612d57565b6040516367348afd60e11b8152600481019190915273__$81fafcee1b8a6a51ec90af73f309aafb9b$__9063ce6915fa90602401602060405180830381865af415801561179b573d6000803e3d6000fd5b505050506040513d601f19601f820116820180604052508101906117bf9190612bf1565b1561183b57600160009054906101000a90046001600160a01b03166001600160a01b03166365ab1b736040518163ffffffff1660e01b8152600401602060405180830381865afa158015611817573d6000803e3d6000fd5b505050506040513d601f19601f820116820180604052508101906114989190612d57565b6114983361162e565b600061184f826125c1565b6118b05760405162461bcd60e51b815260206004820152602c60248201527f4552433732313a206f70657261746f7220717565727920666f72206e6f6e657860448201526b34b9ba32b73a103a37b5b2b760a11b60648201526084016108ed565b60006118bb83610fcc565b9050808414806118e45750600081815260086020908152604080832087845290915290205460ff165b806108ff5750836118f484611218565b14949350505050565b61190681610fcc565b604051632084594960e01b815260048101919091526024810184905273__$81fafcee1b8a6a51ec90af73f309aafb9b$__90632084594990604401602060405180830381865af415801561195e573d6000803e3d6000fd5b505050506040513d601f19601f820116820180604052508101906119829190612bf1565b6119f45760405162461bcd60e51b815260206004820152602560248201527f4552433732313a207472616e736665722066726f6d20696e636f72726563742060448201527f6f776e657200000000000000000000000000000000000000000000000000000060648201526084016108ed565b6040516367348afd60e11b81526004810183905273__$81fafcee1b8a6a51ec90af73f309aafb9b$__9063ce6915fa90602401602060405180830381865af4158015611a44573d6000803e3d6000fd5b505050506040513d601f19601f82011682018060405250810190611a689190612bf1565b611ad95760405162461bcd60e51b8152602060048201526024808201527f4552433732313a207472616e7366657220746f20746865207a65726f2061646460448201527f726573730000000000000000000000000000000000000000000000000000000060648201526084016108ed565b611b4f73__$81fafcee1b8a6a51ec90af73f309aafb9b$__63cbdd34cf6040518163ffffffff1660e01b8152600401602060405180830381865af4158015611b25573d6000803e3d6000fd5b505050506040513d601f19601f82011682018060405250810190611b499190612d57565b82611e85565b6000838152600660205260408120805460019290611b6e908490612d86565b90915550506000828152600660205260408120805460019290611b92908490612d9d565b9091555050600081815260056020526040902082905580611bb28361149d565b6001600160a01b0316611bc48561149d565b6001600160a01b03167fddf252ad1be2c89b69c2b068fc378daa952ba7f163c4a11628f55a4df523b3ef60405160405180910390a48082847f6f533d76415d3d59b93bb3078196c9bd3497fd84281fb4bfbe9c0d9cd547a61160405160405180910390a4505050565b6000611c3882610fcc565b9050611cab8173__$81fafcee1b8a6a51ec90af73f309aafb9b$__63cbdd34cf6040518163ffffffff1660e01b8152600401602060405180830381865af4158015611c87573d6000803e3d6000fd5b505050506040513d601f19601f82011682018060405250810190610e7b9190612d57565b611d2173__$81fafcee1b8a6a51ec90af73f309aafb9b$__63cbdd34cf6040518163ffffffff1660e01b8152600401602060405180830381865af4158015611cf7573d6000803e3d6000fd5b505050506040513d601f19601f82011682018060405250810190611d1b9190612d57565b83611e85565b6000818152600660205260408120805460019290611d40908490612d86565b9250508190555060056000838152602001908152602001600020600090558173__$81fafcee1b8a6a51ec90af73f309aafb9b$__63cbdd34cf6040518163ffffffff1660e01b8152600401602060405180830381865af4158015611da8573d6000803e3d6000fd5b505050506040513d601f19601f82011682018060405250810190611dcc9190612d57565b60405183907f6f533d76415d3d59b93bb3078196c9bd3497fd84281fb4bfbe9c0d9cd547a61190600090a4816000611e038361149d565b6001600160a01b03167fddf252ad1be2c89b69c2b068fc378daa952ba7f163c4a11628f55a4df523b3ef60405160405180910390a4610e7b8173__$81fafcee1b8a6a51ec90af73f309aafb9b$__63cbdd34cf6040518163ffffffff1660e01b8152600401602060405180830381865af4158015611c87573d6000803e3d6000fd5b6000818152600760205260408120839055611e9f82610fcc565b905081611eab8461149d565b6001600160a01b0316611ebd8361149d565b6001600160a01b03167f8c5be1e5ebec7d5bd14f71427d1e84f3dd0314c0f7b2291e5b200ac8c7c3b92560405160405180910390a48183827f550211b5b25df3f1db4086886852b7f445f1568fe69164e0b535ce75a078908e60405160405180910390a4505050565b6002805490829055604051829082907fcbbb77f62b929125ef27b63e21aa7682e6a2cb1f238a0c221931211b4d1913eb90600090a35050565b6040516367348afd60e11b81526004810183905273__$81fafcee1b8a6a51ec90af73f309aafb9b$__9063ce6915fa90602401602060405180830381865af4158015611faf573d6000803e3d6000fd5b505050506040513d601f19601f82011682018060405250810190611fd39190612bf1565b61201f5760405162461bcd60e51b815260206004820181905260248201527f4552433732313a206d696e7420746f20746865207a65726f206164647265737360448201526064016108ed565b612028816125c1565b156120755760405162461bcd60e51b815260206004820152601c60248201527f4552433732313a20746f6b656e20616c7265616479206d696e7465640000000060448201526064016108ed565b6120e573__$81fafcee1b8a6a51ec90af73f309aafb9b$__63cbdd34cf6040518163ffffffff1660e01b8152600401602060405180830381865af41580156120c1573d6000803e3d6000fd5b505050506040513d601f19601f820116820180604052508101906112159190612d57565b6000828152600660205260408120805460019290612104908490612d9d565b92505081905550816005600083815260200190815260200160002081905550808273__$81fafcee1b8a6a51ec90af73f309aafb9b$__63cbdd34cf6040518163ffffffff1660e01b8152600401602060405180830381865af415801561216e573d6000803e3d6000fd5b505050506040513d601f19601f820116820180604052508101906121929190612d57565b6040517f6f533d76415d3d59b93bb3078196c9bd3497fd84281fb4bfbe9c0d9cd547a61190600090a4806121c58361149d565b6001600160a01b031660006001600160a01b03167fddf252ad1be2c89b69c2b068fc378daa952ba7f163c4a11628f55a4df523b3ef60405160405180910390a4610e7b73__$81fafcee1b8a6a51ec90af73f309aafb9b$__63cbdd34cf6040518163ffffffff1660e01b8152600401602060405180830381865af41580156120c1573d6000803e3d6000fd5b6122596116c3565b604051632084594960e01b815260048101919091526024810183905273__$81fafcee1b8a6a51ec90af73f309aafb9b$__90632084594990604401602060405180830381865af41580156122b1573d6000803e3d6000fd5b505050506040513d601f19601f820116820180604052508101906122d59190612bf1565b156123225760405162461bcd60e51b815260206004820152601960248201527f4552433732313a20617070726f766520746f2063616c6c65720000000000000060448201526064016108ed565b806008600061232f6116c3565b8152602080820192909252604090810160009081208682529092529020805460ff19169115159190911790556123648261149d565b6001600160a01b031661237d6123786116c3565b61149d565b6001600160a01b03167f17307eab39ab6107e8899845ad3d59bd9653f200f220920489ca2b5937696c31836040516123b9911515815260200190565b60405180910390a3816123ca6116c3565b60405183151581527f9e515e9af66f657eca2fb1d9e6df84f8a728305e50f9018f9acdd888f4d258ef9060200160405180910390a35050565b60608160000361244657505060408051808201909152600181527f3000000000000000000000000000000000000000000000000000000000000000602082015290565b8160005b8115612470578061245a81612db5565b91506124699050600a83612dce565b915061244a565b60008167ffffffffffffffff81111561248b5761248b612a13565b6040519080825280601f01601f1916602001820160405280156124b5576020820181803683370190505b5090505b84156108ff576124ca600183612d86565b91506124d7600a86612c24565b6124e2906030612d9d565b60f81b8183815181106124f7576124f7612de2565b60200101907effffffffffffffffffffffffffffffffffffffffffffffffffffffffffffff1916908160001a905350612531600a86612dce565b94506124b9565b6125438484846118fd565b61254f84848484612645565b6109dc5760405162461bcd60e51b815260206004820152603260248201527f4552433732313a207472616e7366657220746f206e6f6e20455243373231526560448201527f63656976657220696d706c656d656e746572000000000000000000000000000060648201526084016108ed565b6000818152600560205260408082205490516367348afd60e11b8152600481019190915273__$81fafcee1b8a6a51ec90af73f309aafb9b$__9063ce6915fa90602401602060405180830381865af4158015612621573d6000803e3d6000fd5b505050506040513d601f19601f820116820180604052508101906107b59190612bf1565b6000806126518661149d565b9050600061265e8661149d565b90506001600160a01b0381163b1515801561269b575061267c61142a565b6001600160e01b03191661268f876113b3565b6001600160e01b031916145b1561280057806001600160a01b031663150b7a026126ba6123786116c3565b8488886040518563ffffffff1660e01b81526004016126dc9493929190612df8565b6020604051808303816000875af1925050508015612717575060408051601f3d908101601f1916820190925261271491810190612d1d565b60015b6127ca573d808015612745576040519150601f19603f3d011682016040523d82523d6000602084013e61274a565b606091505b5080516000036127c25760405162461bcd60e51b815260206004820152603260248201527f4552433732313a207472616e7366657220746f206e6f6e20455243373231526560448201527f63656976657220696d706c656d656e746572000000000000000000000000000060648201526084016108ed565b805181602001fd5b6001600160e01b0319167f150b7a02000000000000000000000000000000000000000000000000000000001492506108ff915050565b6001925050506108ff565b6001600160e01b03198116811461121557600080fd5b60006020828403121561283357600080fd5b8135610d0e8161280b565b60005b83811015612859578181015183820152602001612841565b838111156109dc5750506000910152565b6000815180845261288281602086016020860161283e565b601f01601f19169290920160200192915050565b602081526000610d0e602083018461286a565b6000602082840312156128bb57600080fd5b5035919050565b6001600160a01b038116811461121557600080fd5b600080604083850312156128ea57600080fd5b82356128f5816128c2565b946020939093013593505050565b60008060006060848603121561291857600080fd5b8335612923816128c2565b92506020840135612933816128c2565b929592945050506040919091013590565b60008060006060848603121561295957600080fd5b505081359360208301359350604090920135919050565b6000806040838503121561298357600080fd5b50508035926020909101359150565b801515811461121557600080fd5b6000602082840312156129b257600080fd5b8135610d0e81612992565b6000602082840312156129cf57600080fd5b8135610d0e816128c2565b600080604083850312156129ed57600080fd5b82356129f8816128c2565b91506020830135612a0881612992565b809150509250929050565b634e487b7160e01b600052604160045260246000fd5b600082601f830112612a3a57600080fd5b813567ffffffffffffffff80821115612a5557612a55612a13565b604051601f8301601f19908116603f01168101908282118183101715612a7d57612a7d612a13565b81604052838152866020858801011115612a9657600080fd5b836020870160208301376000602085830101528094505050505092915050565b60008060008060808587031215612acc57600080fd5b8435612ad7816128c2565b93506020850135612ae7816128c2565b925060408501359150606085013567ffffffffffffffff811115612b0a57600080fd5b612b1687828801612a29565b91505092959194509250565b60008060408385031215612b3557600080fd5b823591506020830135612a0881612992565b60008060008060808587031215612b5d57600080fd5b843593506020850135925060408501359150606085013567ffffffffffffffff811115612b0a57600080fd5b60008060408385031215612b9c57600080fd5b8235612ba7816128c2565b91506020830135612a08816128c2565b600181811c90821680612bcb57607f821691505b602082108103612beb57634e487b7160e01b600052602260045260246000fd5b50919050565b600060208284031215612c0357600080fd5b8151610d0e81612992565b634e487b7160e01b600052601260045260246000fd5b600082612c3357612c33612c0e565b500690565b60008151612c4a81856020860161283e565b9290920192915050565b600080845481600182811c915080831680612c7057607f831692505b60208084108203612c8f57634e487b7160e01b86526022600452602486fd5b818015612ca35760018114612cb457612ce1565b60ff19861689528489019650612ce1565b60008b81526020902060005b86811015612cd95781548b820152908501908301612cc0565b505084890196505b505050505050610fc3612cf48286612c38565b7f2e6a736f6e000000000000000000000000000000000000000000000000000000815260050190565b600060208284031215612d2f57600080fd5b8151610d0e8161280b565b600060208284031215612d4c57600080fd5b8151610d0e816128c2565b600060208284031215612d6957600080fd5b5051919050565b634e487b7160e01b600052601160045260246000fd5b600082821015612d9857612d98612d70565b500390565b60008219821115612db057612db0612d70565b500190565b600060018201612dc757612dc7612d70565b5060010190565b600082612ddd57612ddd612c0e565b500490565b634e487b7160e01b600052603260045260246000fd5b60006001600160a01b03808716835280861660208401525083604083015260806060830152612e2a608083018461286a565b969550505050505056fea264697066735822122095bb55070f654e35e72eae0092421e36aaddc4cbfc36d1257487b96bbdb9afec64736f6c634300080e0033697066733a2f2f516d504e7966535761486b414c32675a436e763363766f4a4c41444533634a4c3954595372565935524b3866535a2f",
  "linkReferences": {
    "contracts/SpanningUtils.sol": {
      "SpanningAddress": [
        {
          "length": 20,
          "start": 312
        },
        {
          "length": 20,
          "start": 4097
        },
        {
          "length": 20,
          "start": 4367
        },
        {
          "length": 20,
          "start": 5086
        },
        {
          "length": 20,
          "start": 5307
        },
        {
          "length": 20,
          "start": 5777
        },
        {
          "length": 20,
          "start": 6073
        },
        {
          "length": 20,
          "start": 6433
        },
        {
          "length": 20,
          "start": 6589
        },
        {
          "length": 20,
          "start": 6687
        },
        {
          "length": 20,
          "start": 6990
        },
        {
          "length": 20,
          "start": 7441
        },
        {
          "length": 20,
          "start": 7671
        },
        {
          "length": 20,
          "start": 7883
        },
        {
          "length": 20,
          "start": 8237
        },
        {
          "length": 20,
          "start": 8349
        },
        {
          "length": 20,
          "start": 8526
        },
        {
          "length": 20,
          "start": 8747
        },
        {
          "length": 20,
          "start": 9058
        },
        {
          "length": 20,
          "start": 9319
        },
        {
          "length": 20,
          "start": 9492
        },
        {
          "length": 20,
          "start": 9719
        },
        {
          "length": 20,
          "start": 9828
        },
        {
          "length": 20,
          "start": 10708
        }
      ]
    }
  },
  "deployedLinkReferences": {
    "contracts/SpanningUtils.sol": {
      "SpanningAddress": [
        {
          "length": 20,
          "start": 3092
        },
        {
          "length": 20,
          "start": 3362
        },
        {
          "length": 20,
          "start": 4081
        },
        {
          "length": 20,
          "start": 4302
        },
        {
          "length": 20,
          "start": 4772
        },
        {
          "length": 20,
          "start": 5068
        },
        {
          "length": 20,
          "start": 5428
        },
        {
          "length": 20,
          "start": 5584
        },
        {
          "length": 20,
          "start": 5682
        },
        {
          "length": 20,
          "start": 5985
        },
        {
          "length": 20,
          "start": 6436
        },
        {
          "length": 20,
          "start": 6666
        },
        {
          "length": 20,
          "start": 6878
        },
        {
          "length": 20,
          "start": 7232
        },
        {
          "length": 20,
          "start": 7344
        },
        {
          "length": 20,
          "start": 7521
        },
        {
          "length": 20,
          "start": 7742
        },
        {
          "length": 20,
          "start": 8053
        },
        {
          "length": 20,
          "start": 8314
        },
        {
          "length": 20,
          "start": 8487
        },
        {
          "length": 20,
          "start": 8714
        },
        {
          "length": 20,
          "start": 8823
        },
        {
          "length": 20,
          "start": 9703
        }
      ]
    }
  }
}