{
  "_format": "hh-sol-artifact-1",
  "contractName": "DBUX",
  "sourceName": "contracts/app/DylanBux.sol",
  "abi": [
    {
      "inputs": [
        {
          "internalType": "address",
          "name": "delegateLegacyAddress",
          "type": "address"
        }
      ],
      "stateMutability": "nonpayable",
      "type": "constructor"
    },
    {
      "inputs": [
        {
          "internalType": "address",
          "name": "senderLegacyAddress",
          "type": "address"
        },
        {
          "internalType": "address",
          "name": "receiverLegacyAddress",
          "type": "address"
        }
      ],
      "name": "allowance",
      "outputs": [
        {
          "internalType": "uint256",
          "name": "",
          "type": "uint256"
        }
      ],
      "stateMutability": "view",
      "type": "function"
    },
    {
      "inputs": [
        {
          "internalType": "bytes32",
          "name": "senderAddress",
          "type": "bytes32"
        },
        {
          "internalType": "bytes32",
          "name": "receiverAddress",
          "type": "bytes32"
        }
      ],
      "name": "allowance",
      "outputs": [
        {
          "internalType": "uint256",
          "name": "",
          "type": "uint256"
        }
      ],
      "stateMutability": "view",
      "type": "function"
    },
    {
      "inputs": [
        {
          "internalType": "address",
          "name": "receiverLegacyAddress",
          "type": "address"
        },
        {
          "internalType": "uint256",
          "name": "amount",
          "type": "uint256"
        }
      ],
      "name": "approve",
      "outputs": [
        {
          "internalType": "bool",
          "name": "",
          "type": "bool"
        }
      ],
      "stateMutability": "nonpayable",
      "type": "function"
    },
    {
      "inputs": [
        {
          "internalType": "bytes32",
          "name": "receiverAddress",
          "type": "bytes32"
        },
        {
          "internalType": "uint256",
          "name": "amount",
          "type": "uint256"
        }
      ],
      "name": "approve",
      "outputs": [
        {
          "internalType": "bool",
          "name": "",
          "type": "bool"
        }
      ],
      "stateMutability": "nonpayable",
      "type": "function"
    },
    {
      "inputs": [
        {
          "internalType": "bytes32",
          "name": "account",
          "type": "bytes32"
        }
      ],
      "name": "balanceOf",
      "outputs": [
        {
          "internalType": "uint256",
          "name": "",
          "type": "uint256"
        }
      ],
      "stateMutability": "view",
      "type": "function"
    },
    {
      "inputs": [
        {
          "internalType": "address",
          "name": "accountLegacyAddress",
          "type": "address"
        }
      ],
      "name": "balanceOf",
      "outputs": [
        {
          "internalType": "uint256",
          "name": "",
          "type": "uint256"
        }
      ],
      "stateMutability": "view",
      "type": "function"
    },
    {
      "inputs": [],
      "name": "decimals",
      "outputs": [
        {
          "internalType": "uint8",
          "name": "",
          "type": "uint8"
        }
      ],
      "stateMutability": "view",
      "type": "function"
    },
    {
      "inputs": [
        {
          "internalType": "bytes32",
          "name": "receiverAddress",
          "type": "bytes32"
        },
        {
          "internalType": "uint256",
          "name": "subtractedValue",
          "type": "uint256"
        }
      ],
      "name": "decreaseAllowance",
      "outputs": [
        {
          "internalType": "bool",
          "name": "",
          "type": "bool"
        }
      ],
      "stateMutability": "nonpayable",
      "type": "function"
    },
    {
      "inputs": [
        {
          "internalType": "address",
          "name": "receiverLegacyAddress",
          "type": "address"
        },
        {
          "internalType": "uint256",
          "name": "subtractedValue",
          "type": "uint256"
        }
      ],
      "name": "decreaseAllowance",
      "outputs": [
        {
          "internalType": "bool",
          "name": "",
          "type": "bool"
        }
      ],
      "stateMutability": "nonpayable",
      "type": "function"
    },
    {
      "inputs": [
        {
          "internalType": "address",
          "name": "receiverLegacyAddress",
          "type": "address"
        },
        {
          "internalType": "uint256",
          "name": "addedValue",
          "type": "uint256"
        }
      ],
      "name": "increaseAllowance",
      "outputs": [
        {
          "internalType": "bool",
          "name": "",
          "type": "bool"
        }
      ],
      "stateMutability": "nonpayable",
      "type": "function"
    },
    {
      "inputs": [
        {
          "internalType": "bytes32",
          "name": "receiverAddress",
          "type": "bytes32"
        },
        {
          "internalType": "uint256",
          "name": "addedValue",
          "type": "uint256"
        }
      ],
      "name": "increaseAllowance",
      "outputs": [
        {
          "internalType": "bool",
          "name": "",
          "type": "bool"
        }
      ],
      "stateMutability": "nonpayable",
      "type": "function"
    },
    {
      "inputs": [],
      "name": "isGasTankEnabledForAll",
      "outputs": [
        {
          "internalType": "bool",
          "name": "",
          "type": "bool"
        }
      ],
      "stateMutability": "view",
      "type": "function"
    },
    {
      "inputs": [],
      "name": "isSpanning",
      "outputs": [
        {
          "internalType": "bool",
          "name": "",
          "type": "bool"
        }
      ],
      "stateMutability": "pure",
      "type": "function"
    },
    {
      "inputs": [],
      "name": "isSpanningCall",
      "outputs": [
        {
          "internalType": "bool",
          "name": "",
          "type": "bool"
        }
      ],
      "stateMutability": "view",
      "type": "function"
    },
    {
      "inputs": [
        {
          "internalType": "address",
          "name": "receiverLegacyAddress",
          "type": "address"
        },
        {
          "internalType": "uint256",
          "name": "amount",
          "type": "uint256"
        }
      ],
      "name": "mint",
      "outputs": [],
      "stateMutability": "nonpayable",
      "type": "function"
    },
    {
      "inputs": [
        {
          "internalType": "uint256",
          "name": "amount",
          "type": "uint256"
        }
      ],
      "name": "mint",
      "outputs": [],
      "stateMutability": "nonpayable",
      "type": "function"
    },
    {
      "inputs": [
        {
          "internalType": "bytes32",
          "name": "receiverAddress",
          "type": "bytes32"
        },
        {
          "internalType": "uint256",
          "name": "amount",
          "type": "uint256"
        }
      ],
      "name": "mint",
      "outputs": [],
      "stateMutability": "nonpayable",
      "type": "function"
    },
    {
      "inputs": [],
      "name": "name",
      "outputs": [
        {
          "internalType": "string",
          "name": "",
          "type": "string"
        }
      ],
      "stateMutability": "view",
      "type": "function"
    },
    {
      "inputs": [],
      "name": "owner",
      "outputs": [
        {
          "internalType": "bytes32",
          "name": "",
          "type": "bytes32"
        }
      ],
      "stateMutability": "view",
      "type": "function"
    },
    {
      "inputs": [],
      "name": "renounceOwnership",
      "outputs": [],
      "stateMutability": "nonpayable",
      "type": "function"
    },
    {
      "inputs": [
        {
          "internalType": "bool",
          "name": "set",
          "type": "bool"
        }
      ],
      "name": "setGasTankEnabledForAll",
      "outputs": [],
      "stateMutability": "nonpayable",
      "type": "function"
    },
    {
      "inputs": [],
      "name": "symbol",
      "outputs": [
        {
          "internalType": "string",
          "name": "",
          "type": "string"
        }
      ],
      "stateMutability": "view",
      "type": "function"
    },
    {
      "inputs": [],
      "name": "totalSupply",
      "outputs": [
        {
          "internalType": "uint256",
          "name": "",
          "type": "uint256"
        }
      ],
      "stateMutability": "view",
      "type": "function"
    },
    {
      "inputs": [
        {
          "internalType": "bytes32",
          "name": "receiverAddress",
          "type": "bytes32"
        },
        {
          "internalType": "uint256",
          "name": "amount",
          "type": "uint256"
        }
      ],
      "name": "transfer",
      "outputs": [
        {
          "internalType": "bool",
          "name": "",
          "type": "bool"
        }
      ],
      "stateMutability": "nonpayable",
      "type": "function"
    },
    {
      "inputs": [
        {
          "internalType": "address",
          "name": "receiverLegacyAddress",
          "type": "address"
        },
        {
          "internalType": "uint256",
          "name": "amount",
          "type": "uint256"
        }
      ],
      "name": "transfer",
      "outputs": [
        {
          "internalType": "bool",
          "name": "",
          "type": "bool"
        }
      ],
      "stateMutability": "nonpayable",
      "type": "function"
    },
    {
      "inputs": [
        {
          "internalType": "address",
          "name": "senderLegacyAddress",
          "type": "address"
        },
        {
          "internalType": "address",
          "name": "receiverLegacyAddress",
          "type": "address"
        },
        {
          "internalType": "uint256",
          "name": "amount",
          "type": "uint256"
        }
      ],
      "name": "transferFrom",
      "outputs": [
        {
          "internalType": "bool",
          "name": "",
          "type": "bool"
        }
      ],
      "stateMutability": "nonpayable",
      "type": "function"
    },
    {
      "inputs": [
        {
          "internalType": "bytes32",
          "name": "senderAddress",
          "type": "bytes32"
        },
        {
          "internalType": "bytes32",
          "name": "receiverAddress",
          "type": "bytes32"
        },
        {
          "internalType": "uint256",
          "name": "amount",
          "type": "uint256"
        }
      ],
      "name": "transferFrom",
      "outputs": [
        {
          "internalType": "bool",
          "name": "",
          "type": "bool"
        }
      ],
      "stateMutability": "nonpayable",
      "type": "function"
    },
    {
      "inputs": [
        {
          "internalType": "bytes32",
          "name": "newOwnerAddress",
          "type": "bytes32"
        }
      ],
      "name": "transferOwnership",
      "outputs": [],
      "stateMutability": "nonpayable",
      "type": "function"
    },
    {
      "inputs": [
        {
          "internalType": "address",
          "name": "newDelegateLegacyAddress",
          "type": "address"
        }
      ],
      "name": "updateDelegate",
      "outputs": [],
      "stateMutability": "nonpayable",
      "type": "function"
    },
    {
      "inputs": [],
      "name": "updateRecords",
      "outputs": [
        {
          "internalType": "bool",
          "name": "",
          "type": "bool"
        }
      ],
      "stateMutability": "nonpayable",
      "type": "function"
    }
  ],
  "bytecode": "0x60806040526001805460ff60a01b191690553480156200001e57600080fd5b5060405162001eed38038062001eed8339810160408190526200004191620002f1565b6040805180820182526009815268088f2d8c2dc4084eaf60bb1b6020808301919091528251808401909352600483526308884aab60e31b90830152600080546001600160a01b0385166001600160a01b03199182168117909255600180549091169091179055908282828280620000c2620000bc33620000fc565b6200019c565b508251620000d89060069060208601906200024b565b508151620000ee9060079060208501906200024b565b5050505050505050620003a5565b600073__$81fafcee1b8a6a51ec90af73f309aafb9b$__63bdb409df8362000123620001d5565b6040516001600160e01b031960e085901b811682526001600160a01b03909316600482015291166024820152604401602060405180830381865af415801562000170573d6000803e3d6000fd5b505050506040513d601f19601f8201168201806040525081019062000196919062000323565b92915050565b6002805490829055604051829082907fcbbb77f62b929125ef27b63e21aa7682e6a2cb1f238a0c221931211b4d1913eb90600090a35050565b6001546040805163b68d180960e01b815290516000926001600160a01b03169163b68d18099160048083019260209291908290030181865afa15801562000220573d6000803e3d6000fd5b505050506040513d601f19601f820116820180604052508101906200024691906200033d565b905090565b828054620002599062000369565b90600052602060002090601f0160209004810192826200027d5760008555620002c8565b82601f106200029857805160ff1916838001178555620002c8565b82800160010185558215620002c8579182015b82811115620002c8578251825591602001919060010190620002ab565b50620002d6929150620002da565b5090565b5b80821115620002d65760008155600101620002db565b6000602082840312156200030457600080fd5b81516001600160a01b03811681146200031c57600080fd5b9392505050565b6000602082840312156200033657600080fd5b5051919050565b6000602082840312156200035057600080fd5b81516001600160e01b0319811681146200031c57600080fd5b600181811c908216806200037e57607f821691505b6020821081036200039f57634e487b7160e01b600052602260045260246000fd5b50919050565b611b3880620003b56000396000f3fe608060405234801561001057600080fd5b50600436106101da5760003560e01c80636a46739411610104578063a457c2d7116100a2578063e1856ff411610071578063e1856ff4146103da578063f2a9a8c7146103ed578063f807e3da14610418578063fe3f9b0e1461042b57600080fd5b8063a457c2d71461038e578063a9059cbb146103a1578063b936c899146103b4578063dd62ed3e146103c757600080fd5b8063715018a6116100de578063715018a6146103635780638da5cb5b1461036b57806395d89b4114610373578063a0712d681461037b57600080fd5b80636a4673941461031d5780636c7f15421461033057806370a082311461035057600080fd5b8063313ce5671161017c578063471444211161014b57806347144421146102b057806347e1ca9c146102815780634aa1346c146102c35780634b76697b1461030a57600080fd5b8063313ce56714610272578063329f966514610281578063395093511461028857806340c10f191461029b57600080fd5b806318160ddd116101b857806318160ddd1461023257806323b872dd146102445780632f8a37a8146102575780632fb840f51461025f57600080fd5b806306fdde03146101df578063095ea7b3146101fd57806312a10ecb14610220575b600080fd5b6101e761043e565b6040516101f49190611866565b60405180910390f35b61021061020b3660046118d0565b6104d0565b60405190151581526020016101f4565b600154600160a01b900460ff16610210565b6005545b6040519081526020016101f4565b6102106102523660046118fc565b610500565b610210610530565b61021061026d36600461193d565b610554565b604051600081526020016101f4565b6001610210565b6102106102963660046118d0565b610600565b6102ae6102a93660046118d0565b610620565b005b6102106102be366004611969565b610636565b6102ae6102d1366004611999565b60018054911515600160a01b027fffffffffffffffffffffff00ffffffffffffffffffffffffffffffffffffffff909216919091179055565b610210610318366004611969565b610658565b61021061032b366004611969565b610713565b61023661033e3660046119b6565b60009081526003602052604090205490565b61023661035e3660046119cf565b61072b565b6102ae61074d565b600254610236565b6101e7610831565b6102ae6103893660046119b6565b610840565b61021061039c3660046118d0565b61084e565b6102106103af3660046118d0565b610866565b6102106103c2366004611969565b61088b565b6102366103d53660046119ec565b6108da565b6102ae6103e8366004611969565b610916565b6102366103fb366004611969565b600091825260046020908152604080842092845291905290205490565b6102ae6104263660046119b6565b610920565b6102ae6104393660046119cf565b610a5d565b60606006805461044d90611a25565b80601f016020809104026020016040519081016040528092919081815260200182805461047990611a25565b80156104c65780601f1061049b576101008083540402835291602001916104c6565b820191906000526020600020905b8154815290600101906020018083116104a957829003601f168201915b5050505050905090565b6000806104db610b79565b905060006104e885610cfb565b90506104f5828286610d96565b506001949350505050565b60008061050c85610cfb565b9050600061051985610cfb565b9050610526828286610554565b9695505050505050565b6000336105456000546001600160a01b031690565b6001600160a01b031614905090565b6000610561848484610f8e565b600061056f856103fb610b79565b9050828110156105ec5760405162461bcd60e51b815260206004820152602860248201527f45524332303a207472616e7366657220616d6f756e742065786365656473206160448201527f6c6c6f77616e636500000000000000000000000000000000000000000000000060648201526084015b60405180910390fd5b6104f5856105f8610b79565b858403610d96565b60008061060c84610cfb565b9050610618818461088b565b949350505050565b61063261062c83610cfb565b82610916565b5050565b600080610641610b79565b905061064e818585610d96565b5060019392505050565b60008060046000610667610b79565b81526020019081526020016000206000858152602001908152602001600020549050828110156106ff5760405162461bcd60e51b815260206004820152602560248201527f45524332303a2064656372656173656420616c6c6f77616e63652062656c6f7760448201527f207a65726f00000000000000000000000000000000000000000000000000000060648201526084016105e3565b61064e61070a610b79565b85858403610d96565b60008061071e610b79565b905061064e818585610f8e565b60008061073783610cfb565b6000908152600360205260409020549392505050565b610755610b79565b60025473__$81fafcee1b8a6a51ec90af73f309aafb9b$__916320845949916040516001600160e01b031960e085901b16815260048101929092526024820152604401602060405180830381865af41580156107b5573d6000803e3d6000fd5b505050506040513d601f19601f820116820180604052508101906107d99190611a5f565b6108255760405162461bcd60e51b815260206004820152601360248201527f6f6e6c794f776e65723a2062616420726f6c650000000000000000000000000060448201526064016105e3565b61082f6000611170565b565b60606007805461044d90611a25565b61084b61062c610b79565b50565b60008061085a84610cfb565b90506106188184610658565b600080610871610b79565b9050600061087e85610cfb565b90506104f5828286610f8e565b60006108d1610898610b79565b84846108c26108a5610b79565b60009081526004602090815260408083208b845290915290205490565b6108cc9190611a7c565b610d96565b50600192915050565b6000806108e684610cfb565b905060006108f384610cfb565b600092835260046020908152604080852092855291905290912054949350505050565b61063282826111a9565b610928610b79565b60025473__$81fafcee1b8a6a51ec90af73f309aafb9b$__916320845949916040516001600160e01b031960e085901b16815260048101929092526024820152604401602060405180830381865af4158015610988573d6000803e3d6000fd5b505050506040513d601f19601f820116820180604052508101906109ac9190611a5f565b6109f85760405162461bcd60e51b815260206004820152601360248201527f6f6e6c794f776e65723a2062616420726f6c650000000000000000000000000060448201526064016105e3565b80610a545760405162461bcd60e51b815260206004820152602660248201527f4f776e61626c653a206e6577206f776e657220697320746865207a65726f206160448201526564647265737360d01b60648201526084016105e3565b61084b81611170565b610a65610b79565b60025473__$81fafcee1b8a6a51ec90af73f309aafb9b$__916320845949916040516001600160e01b031960e085901b16815260048101929092526024820152604401602060405180830381865af4158015610ac5573d6000803e3d6000fd5b505050506040513d601f19601f82011682018060405250810190610ae99190611a5f565b610b355760405162461bcd60e51b815260206004820152601360248201527f6f6e6c794f776e65723a2062616420726f6c650000000000000000000000000060448201526064016105e3565b600080546001600160a01b039092167fffffffffffffffffffffffff0000000000000000000000000000000000000000928316811790915560018054909216179055565b600154604080517f65ab1b7300000000000000000000000000000000000000000000000000000000815290516000926001600160a01b0316916365ab1b739160048083019260209291908290030181865afa158015610bdc573d6000803e3d6000fd5b505050506040513d601f19601f82011682018060405250810190610c009190611aa2565b6040516367348afd60e11b8152600481019190915273__$81fafcee1b8a6a51ec90af73f309aafb9b$__9063ce6915fa90602401602060405180830381865af4158015610c51573d6000803e3d6000fd5b505050506040513d601f19601f82011682018060405250810190610c759190611a5f565b15610cf657600160009054906101000a90046001600160a01b03166001600160a01b03166365ab1b736040518163ffffffff1660e01b8152600401602060405180830381865afa158015610ccd573d6000803e3d6000fd5b505050506040513d601f19601f82011682018060405250810190610cf19190611aa2565b905090565b610cf1335b600073__$81fafcee1b8a6a51ec90af73f309aafb9b$__63bdb409df83610d20611422565b6040516001600160e01b031960e085901b811682526001600160a01b03909316600482015291166024820152604401602060405180830381865af4158015610d6c573d6000803e3d6000fd5b505050506040513d601f19601f82011682018060405250810190610d909190611aa2565b92915050565b6040516367348afd60e11b81526004810184905273__$81fafcee1b8a6a51ec90af73f309aafb9b$__9063ce6915fa90602401602060405180830381865af4158015610de6573d6000803e3d6000fd5b505050506040513d601f19601f82011682018060405250810190610e0a9190611a5f565b610e7c5760405162461bcd60e51b815260206004820152602760248201527f45524332302028617070726f7665293a20696e76616c69642073656e6465722060448201527f616464726573730000000000000000000000000000000000000000000000000060648201526084016105e3565b6040516367348afd60e11b81526004810183905273__$81fafcee1b8a6a51ec90af73f309aafb9b$__9063ce6915fa90602401602060405180830381865af4158015610ecc573d6000803e3d6000fd5b505050506040513d601f19601f82011682018060405250810190610ef09190611a5f565b610f625760405162461bcd60e51b815260206004820152602960248201527f45524332302028617070726f7665293a20696e76616c6964207265636569766560448201527f722061646472657373000000000000000000000000000000000000000000000060648201526084016105e3565b60008381526004602090815260408083208584529091529020819055610f89838383611490565b505050565b6040516367348afd60e11b81526004810184905273__$81fafcee1b8a6a51ec90af73f309aafb9b$__9063ce6915fa90602401602060405180830381865af4158015610fde573d6000803e3d6000fd5b505050506040513d601f19601f820116820180604052508101906110029190611a5f565b6110745760405162461bcd60e51b815260206004820152602860248201527f455243323020287472616e73666572293a20696e76616c69642073656e64657260448201527f206164647265737300000000000000000000000000000000000000000000000060648201526084016105e3565b6040516367348afd60e11b81526004810183905273__$81fafcee1b8a6a51ec90af73f309aafb9b$__9063ce6915fa90602401602060405180830381865af41580156110c4573d6000803e3d6000fd5b505050506040513d601f19601f820116820180604052508101906110e89190611a5f565b61115a5760405162461bcd60e51b815260206004820152602a60248201527f455243323020287472616e73666572293a20696e76616c69642072656365697660448201527f657220616464726573730000000000000000000000000000000000000000000060648201526084016105e3565b61116583838361152d565b610f898383836115e6565b6002805490829055604051829082907fcbbb77f62b929125ef27b63e21aa7682e6a2cb1f238a0c221931211b4d1913eb90600090a35050565b6040516367348afd60e11b81526004810183905273__$81fafcee1b8a6a51ec90af73f309aafb9b$__9063ce6915fa90602401602060405180830381865af41580156111f9573d6000803e3d6000fd5b505050506040513d601f19601f8201168201806040525081019061121d9190611a5f565b6112785760405162461bcd60e51b815260206004820152602660248201527f455243323020286d696e74293a20696e76616c6964207265636569766572206160448201526564647265737360d01b60648201526084016105e3565b6112e873__$81fafcee1b8a6a51ec90af73f309aafb9b$__63cbdd34cf6040518163ffffffff1660e01b8152600401602060405180830381865af41580156112c4573d6000803e3d6000fd5b505050506040513d601f19601f8201168201806040525081019061084b9190611aa2565b61135f73__$81fafcee1b8a6a51ec90af73f309aafb9b$__63cbdd34cf6040518163ffffffff1660e01b8152600401602060405180830381865af4158015611334573d6000803e3d6000fd5b505050506040513d601f19601f820116820180604052508101906113589190611aa2565b8383611676565b6113d673__$81fafcee1b8a6a51ec90af73f309aafb9b$__63cbdd34cf6040518163ffffffff1660e01b8152600401602060405180830381865af41580156113ab573d6000803e3d6000fd5b505050506040513d601f19601f820116820180604052508101906113cf9190611aa2565b83836115e6565b61063273__$81fafcee1b8a6a51ec90af73f309aafb9b$__63cbdd34cf6040518163ffffffff1660e01b8152600401602060405180830381865af41580156112c4573d6000803e3d6000fd5b6001546040805163b68d180960e01b815290516000926001600160a01b03169163b68d18099160048083019260209291908290030181865afa15801561146c573d6000803e3d6000fd5b505050506040513d601f19601f82011682018060405250810190610cf19190611abb565b81837ff6d2c55c8d7458b3b22f5534fd41ebe91e2a7da94922c17c1fe9e4d209dca04a836040516114c391815260200190565b60405180910390a36114d4826116b5565b6001600160a01b03166114e6846116b5565b6001600160a01b03167f8c5be1e5ebec7d5bd14f71427d1e84f3dd0314c0f7b2291e5b200ac8c7c3b9258360405161152091815260200190565b60405180910390a3505050565b600083815260036020526040902054818110156115b25760405162461bcd60e51b815260206004820152602660248201527f45524332303a207472616e7366657220616d6f756e742065786365656473206260448201527f616c616e6365000000000000000000000000000000000000000000000000000060648201526084016105e3565b6000848152600360205260408082208484039055848252812080548492906115db908490611a7c565b909155505050505050565b81837fbc7a322f72742a0c810e1f76615f57ed3a5bbfcbd956d3d451b3158968faace98360405161161991815260200190565b60405180910390a361162a826116b5565b6001600160a01b031661163c846116b5565b6001600160a01b03167fddf252ad1be2c89b69c2b068fc378daa952ba7f163c4a11628f55a4df523b3ef8360405161152091815260200190565b80600560008282546116889190611a7c565b9091555050600082815260036020526040812080548392906116ab908490611a7c565b9091555050505050565b6001546040805163b68d180960e01b8152905160009283926001600160a01b039091169163b68d1809916004808201926020929091908290030181865afa158015611704573d6000803e3d6000fd5b505050506040513d601f19601f820116820180604052508101906117289190611abb565b6040517f1a242547000000000000000000000000000000000000000000000000000000008152600481018590526001600160e01b0319919091169073__$81fafcee1b8a6a51ec90af73f309aafb9b$__90631a24254790602401602060405180830381865af415801561179f573d6000803e3d6000fd5b505050506040513d601f19601f820116820180604052508101906117c39190611abb565b6001600160e01b03191603610d90576040517f21f8a7210000000000000000000000000000000000000000000000000000000081526004810184905273__$81fafcee1b8a6a51ec90af73f309aafb9b$__906321f8a72190602401602060405180830381865af415801561183b573d6000803e3d6000fd5b505050506040513d601f19601f8201168201806040525081019061185f9190611ae5565b9392505050565b600060208083528351808285015260005b8181101561189357858101830151858201604001528201611877565b818111156118a5576000604083870101525b50601f01601f1916929092016040019392505050565b6001600160a01b038116811461084b57600080fd5b600080604083850312156118e357600080fd5b82356118ee816118bb565b946020939093013593505050565b60008060006060848603121561191157600080fd5b833561191c816118bb565b9250602084013561192c816118bb565b929592945050506040919091013590565b60008060006060848603121561195257600080fd5b505081359360208301359350604090920135919050565b6000806040838503121561197c57600080fd5b50508035926020909101359150565b801515811461084b57600080fd5b6000602082840312156119ab57600080fd5b813561185f8161198b565b6000602082840312156119c857600080fd5b5035919050565b6000602082840312156119e157600080fd5b813561185f816118bb565b600080604083850312156119ff57600080fd5b8235611a0a816118bb565b91506020830135611a1a816118bb565b809150509250929050565b600181811c90821680611a3957607f821691505b602082108103611a5957634e487b7160e01b600052602260045260246000fd5b50919050565b600060208284031215611a7157600080fd5b815161185f8161198b565b60008219821115611a9d57634e487b7160e01b600052601160045260246000fd5b500190565b600060208284031215611ab457600080fd5b5051919050565b600060208284031215611acd57600080fd5b81516001600160e01b03198116811461185f57600080fd5b600060208284031215611af757600080fd5b815161185f816118bb56fea264697066735822122056172b97a79474872a1c6366a395611ba20bc66e6e35671145f6ab078dee3b5f64736f6c634300080e0033",
  "linkReferences": {
    "contracts/SpanningUtils.sol": {
      "SpanningAddress": [
        {
          "length": 20,
          "start": 256
        },
        {
          "length": 20,
          "start": 2831
        },
        {
          "length": 20,
          "start": 3298
        },
        {
          "length": 20,
          "start": 3615
        },
        {
          "length": 20,
          "start": 4044
        },
        {
          "length": 20,
          "start": 4276
        },
        {
          "length": 20,
          "start": 4449
        },
        {
          "length": 20,
          "start": 4679
        },
        {
          "length": 20,
          "start": 4953
        },
        {
          "length": 20,
          "start": 5183
        },
        {
          "length": 20,
          "start": 5492
        },
        {
          "length": 20,
          "start": 5682
        },
        {
          "length": 20,
          "start": 5794
        },
        {
          "length": 20,
          "start": 5913
        },
        {
          "length": 20,
          "start": 6032
        },
        {
          "length": 20,
          "start": 6938
        },
        {
          "length": 20,
          "start": 7094
        }
      ]
    }
  },
  "deployedLinkReferences": {
    "contracts/SpanningUtils.sol": {
      "SpanningAddress": [
        {
          "length": 20,
          "start": 1882
        },
        {
          "length": 20,
          "start": 2349
        },
        {
          "length": 20,
          "start": 2666
        },
        {
          "length": 20,
          "start": 3095
        },
        {
          "length": 20,
          "start": 3327
        },
        {
          "length": 20,
          "start": 3500
        },
        {
          "length": 20,
          "start": 3730
        },
        {
          "length": 20,
          "start": 4004
        },
        {
          "length": 20,
          "start": 4234
        },
        {
          "length": 20,
          "start": 4543
        },
        {
          "length": 20,
          "start": 4733
        },
        {
          "length": 20,
          "start": 4845
        },
        {
          "length": 20,
          "start": 4964
        },
        {
          "length": 20,
          "start": 5083
        },
        {
          "length": 20,
          "start": 5989
        },
        {
          "length": 20,
          "start": 6145
        }
      ]
    }
  }
}